:080003005374617274210A00BC
:1007D700040D0000000001150001170001160001BB
:1007E70018000419000000000408000000000411AC
:0407F70000000000FE
:0300230002068052
:10068000C0E0C083C082C0D0C0AC75AC0030992738
:10069000C299E516B51804C200801C74202518F50F
:1006A00082E43400F583E0F599D2000518E518C31B
:1006B0009420400375180030981CC29874002515CA
:1006C000F582E43400F583E599F00515E515C3944A
:1006D000204003751500D0ACD0D0D082D083D0E0BC
:0106E00032E7
:03000B000207FCED
:1007FC00C0E0C0D0758A00758C00E5102401F5109E
:10080C00E4350FF50FE4350EF50EE4350DF50DD08E
:04081C00D0D0E03226
:10072E0020000EE4F518751601900020EFF0D29916
:10073E0022AE1674202EF582E43400F583EFF00E0F
:10074E00EEC394204002E4FEEE651860FBC2AC8E50
:03075E0016D2AC04
:010761002275
:10000E0012028BFF600C12072E740129F9E43AFAE2
:03001E0080EE224F
:0708B800D2A9D2ACD2AF229D
:10082000439C01539CEFC29FD29ED29C43B930534C
:10083000877F439C4043B940759AB2759BB243B9D8
:02084000802214
:1007B100E58954FC4401F58953A4FE53A3FB5389F5
:1007C100FB5389F775AC0653A4EFE4F5AC758A6069
:0607D100758CF0D28C22B1
:100881001208BF1207B11208201208B8E4F515F5D5
:0A08910017F516F518C2000206E183
:100864001208817BFF7A00790312000E1205B01280
:0D08740002CF12061812039612045D80EFE9
:1006E1007F011208AA120842E4FF1208AA12084266
:1006F1007F011208AA120842E4FF1208AA12084256
:100701007F011208AA120842E4FF1208AA12084245
:100711007F011208AAE4900044F0900049F0900093
:0D0721004EF0900053F0900058F002078A4F
:0E08AA00EF24FF92909291929592969297224F
:10078A0012076590004012076290004512076290B6
:10079A00004A1202C312076590004F1202C31207E1
:0707AA00659000540202C338
:1005B000900044E07061120765900040E0F8A3E00D
:1005C000F9A3E0FAA3E0FBC3EF9BFFEE9AFEED99DF
:1005D000FDEC98FCE47B507A46F9F8C31202B24075
:1005E00003D29022120765900040E0F8A3E0F9A33F
:1005F000E0FAA3E0FBC3EF9BFFEE9AFEED99FDEC62
:1006000098FCE47B507A46F9F8C31202B25008C253
:08061000909000447401F022F7
:1002CF00900049E06003020395120765900045E036
:1002DF00F8A3E0F9A3E0FAA3E0FBC3EF9BFFEE9ACC
:1002EF00FEED99FDEC98FCE47B507A46F9F8C312C9
:1002FF0002B24003D29122120765900045E0F8A3A5
:10030F00E0F9A3E0FAA3E0FBC3EF9BFFEE9AFEED4B
:10031F0099FDEC98FCE47BA07A8CF9F8C31202B239
:10032F004003C29122120765900045E0F8A3E0F95F
:10033F00A3E0FAA3E0FBC3EF9BFFEE9AFEED99FD5E
:10034F00EC98FCE47BC07AA8F9F8C31202B2400320
:10035F00D29122120765900045E0F8A3E0F9A3E0DF
:10036F00FAA3E0FBC3EF9BFFEE9AFEED99FDEC982D
:10037F00FCE47BC07AA8F9F8C31202B25008C2910C
:07038F009000497401F02207
:1006180090004EE0706112076590004AE0F8A3E090
:10062800F9A3E0FAA3E0FBC3EF9BFFEE9AFEED9976
:10063800FDEC98FCE47B607A54F9F8C31202B240EE
:1006480003D2952212076590004AE0F8A3E0F9A3C7
:10065800E0FAA3E0FBC3EF9BFFEE9AFEED99FDECF9
:1006680098FCE47B607A54F9F8C31202B25008C2CD
:080678009590004E7401F02280
:10039600900053E0600302045C12076590004FE092
:1003A600F8A3E0F9A3E0FAA3E0FBC3EF9BFFEE9A04
:1003B600FEED99FDEC98FCE47B507A46F9F8C31201
:1003C60002B24003D2962212076590004FE0F8A3CE
:1003D600E0F9A3E0FAA3E0FBC3EF9BFFEE9AFEED84
:1003E60099FDEC98FCE47BB07A9AF9F8C31202B254
:1003F6004003C2962212076590004FE0F8A3E0F989
:10040600A3E0FAA3E0FBC3EF9BFFEE9AFEED99FD96
:10041600EC98FCE47BC07AA8F9F8C31202B2400358
:10042600D2962212076590004FE0F8A3E0F9A3E008
:10043600FAA3E0FBC3EF9BFFEE9AFEED99FDEC9865
:10044600FCE47BC07AA8F9F8C31202B25008C2963F
:070456009000537401F02235
:10045D00900058E06003020523120765900054E0F8
:10046D00F8A3E0F9A3E0FAA3E0FBC3EF9BFFEE9A3C
:10047D00FEED99FDEC98FCE47B607A54F9F8C3121B
:10048D0002B24003D29722120765900054E0F8A300
:10049D00E0F9A3E0FAA3E0FBC3EF9BFFEE9AFEEDBC
:1004AD0099FDEC98FCE47BB07A9AF9F8C31202B28C
:1004BD004003C29722120765900054E0F8A3E0F9BB
:1004CD00A3E0FAA3E0FBC3EF9BFFEE9AFEED99FDCF
:1004DD00EC98FCE47BC07AA8F9F8C31202B2400391
:1004ED00D29722120765900054E0F8A3E0F9A3E03B
:1004FD00FAA3E0FBC3EF9BFFEE9AFEED99FDEC989E
:10050D00FCE47BC07AA8F9F8C31202B25008C29776
:07051D009000587401F02268
:030762001202C3BD
:10076500AF10AE0FAD0EAC0DE41201CCE4FBFA797F
:100775007A784412012F7B6F7A12798378421200BE
:050785002612020A2209
:0708BF004391E353921C2258
:07089B007FC81208A27FC80C
:0808A200EF6004001F80F92241
:040842007FE87E03CA
:10084600AD07AC06ED4C601543E11012089B12088B
:0E0856009B7FC81208A2ED1D70EA1C80E722ED
:10002600EC4D6011E8497017ED33EC3304600DE4D4
:10003600FCFFFEFD22E933E8330470F80202761273
:10004600024158046009E4CC248150062850090274
:10005600028028400302027DC0E0EB4A7044B9806A
:1000660006D0E0FB02026CEF4E701CBD8008EBFF71
:10007600EAFEE9FD80EBE98DF0A4FEE5F002010F52
:10008600E9CDF9EAFEEBFFEF89F0A4FCE5F0CE89B5
:10009600F0A42EFFE435F0CD89F0A42DFEE435F072
:1000A6008067EF4E7005BD80D780C3EF8BF0A4ACA0
:1000B600F0EE8BF0A42CFCE435F0F8EF8AF0A42CDB
:1000C600E5F038FCE433CB8DF0A42CFCE5F03BF8EE
:1000D600EE8AF0A42CFCE5F038F8E433CF89F0A4DE
:1000E6002CFCE5F038CF3400CE89F0A42FFFE5F0E4
:1000F6003EFEE433C98DF0A42EFEE5F039CD8AF03C
:10010600A42FFFE5F03EFEE43DFD33D0E0FB5007B3
:100116000BBB000F020280EC2CFCEF33FFEE33FE2C
:06012600ED33FD0202585A
:10012C00020280EC5D046005E8590470030202765B
:10013C00120241580460F6EC4860F2EC7004FDFECB
:10014C00FF22C860DB2481C85009C39860025006A6
:10015C0002027D9850CAF582E9294B4A7005AB82A0
:10016C0002026C75F0007C1A7880C3EF9BEE9AED5E
:10017C0099400DC3EF9BFFEE9AFEED99FDE842F01E
:10018C00DC23ACF0D0E0FFD0E0FED0E0FDAB822071
:10019C00E7101BEB60BAEC2CFCEF33FFEE33FEEDFB
:1001AC0033FD020258E803F830E705C0F075F000A3
:1001BC00EF2FFFEE33FEED33FD40B830E7C280AADF
:1001CC0075F020800E75F010800575F0087D007EAE
:1001DC00007F003392D530D5031202A4EC334010CB
:1001EC00EF33FFEE33FEED33FDEC33FCD5F0ED22B7
:0E01FC00E5F0247EA2D513CC92E7CDCEFF22F3
:10020A00EDD2E7CD33EC3392D524814006E4FFFEEC
:10021A00FDFC22FCE4CFCECDCC24E0501174FF804B
:10022A00EDC3CC13CCCD13CDCE13CECF13CF0470E8
:07023A00F030D5DE0202A442
:10024100E9D2E7C933E833F892D5EDD2E7CD33EC03
:0702510033FC5002B2D5227C
:10025800EC30E7100FBF000C0EBE00080DBD000407
:100268000BEB6014A2D5EB13FCED92E7FD2274FFB3
:10027800FCFDFEFF22E480F8A2D574FF13FC7D800C
:03028800E480EF20
:03000000020524D2
:0C052400787FE4F6D8FD75812002056B9D
:10028B00BB010689828A83E0225002E722BBFE0271
:09029B00E32289828A83E49322A4
:0E02A400C3E49FFFE49EFEE49DFDE49CFC226B
:1002B200EB9FF5F0EA9E42F0E99D42F0E89C45F0A2
:0102C2002219
:0C02C300ECF0A3EDF0A3EEF0A3EFF022AE
:10053000020864E493A3F8E493A34003F68001F275
:1005400008DFF48029E493A3F85407240CC8C333CC
:10055000C4540F4420C8834004F456800146F6DF9B
:10056000E4800B01020408102040809007D7E47E4D
:10057000019360BCA3FF543F30E509541FFEE49390
:10058000A360010ECF54C025E060A840B8E493A357
:10059000FAE493A3F8E493A3C8C582C8CAC583CA82
:1005A000F0A3C8C582C8CAC583CADFE9DEE780BE3A
:0107FB0000FD
:00000001FF
